:020000040800F2
:1000000000000138891B0008C90E0008D10E000845
:10001000E50E0008F90E0008FF0E000800000000C1
:10002000000000000000000000000000050F0008B4
:10003000130F000800000000210F00082F0F000818
:10004000D91B0008D91B0008D91B0008D91B0008C0
:10005000D91B0008D91B0008D91B0008D91B0008B0
:10006000D91B0008D91B0008D91B0008D91B0008A0
:10007000D91B0008D91B0008D91B0008D91B000890
:10008000D91B0008D91B0008D91B0008D91B000880
:10009000D91B0008D91B0008D91B0008D91B000870
:1000A000D91B0008D91B0008D91B0008D91B000860
:1000B000D91B0008D91B0008D91B0008D91B000850
:1000C000D91B0008D91B0008D91B0008D91B000840
:1000D000D91B0008D91B0008D91B0008D91B000830
:1000E000D91B0008D91B000800000000D91B00081C
:1000F000D91B0008D91B0008D91B0008D91B000810
:10010000D91B0008D91B0008D91B0008D91B0008FF
:10011000D91B0008D91B0008D91B0008D91B0008EF
:10012000D91B0008D91B0008D91B0008D91B0008DF
:10013000D91B0008D91B0008D91B0008D91B0008CF
:1001400000000000000000000000000000000000AF
:10015000D91B0008D91B0008D91B0008D91B0008AF
:10016000D91B0008D91B0008D91B0008D91B00089F
:10017000D91B0008D91B0008D91B0008D91B00088F
:10018000D91B0008D91B0008D91B0008D91B00087F
:10019000D91B0008D91B0008D91B0008D91B00086F
:1001A000D91B0008D91B0008D91B0008D91B00085F
:1001B000D91B0008D91B0008D91B0008D91B00084F
:1001C000D91B0008D91B0008D91B0008D91B00083F
:1001D000D91B00083D0F0008D91B0008D91B0008D7
:1001E000D91B0008D91B0008D91B0008D91B00081F
:1001F000D91B0008D91B0008D91B0008D91B00080F
:10020000D91B0008D91B0008D91B0008D91B0008FE
:10021000D91B0008D91B0008D91B0008D91B0008EE
:10022000D91B0008D91B0008D91B000800000000DA
:10023000D91B0008D91B000800000000D91B0008CA
:10024000D91B0008D91B0008D91B0008D91B0008BE
:10025000D91B0008D91B0008D91B0008D91B0008AE
:10026000D91B0008D91B0008D91B0008D91B00089E
:10027000D91B0008D91B0008D91B0008000000008A
:10028000D91B0008D91B0008D91B0008000000007A
:0802900000000000D91B00086A
:1002A00010B5054C237833B9044B13B10448AFF3B0
:1002B00000800123237010BD4401002400000000D1
:1002C000E0D4000808B5034B1BB103490348AFF362
:1002D000008008BD0000000048010024E0D40008B0
:1002E00001F0FF01102A2BDB10F0070F08D010F8E7
:1002F000013B013A8B422DD010F0070F42B3F6D1EB
:10030000F0B441EA012141EA014122F007047FF003
:1003100000070023F0E80256083C85EA010586EA5A
:10032000010685FA47F5A3FA87F586FA47F6A5FA96
:1003300087F68EB9EED1F0BC01F0FF0102F00702A2
:1003400032B110F8013B013A83EA010313B1F8D14D
:100350000020704701387047002D06BF354603382E
:10036000073815F0010F07D1013015F4807F02BF67
:10037000013015F4C03F0130F0BC0138704700BFB8
:1003800053B94AB9002908BF00281CBF4FF0FF31FC
:100390004FF0FF3000F074B9ADF1080C6DE904CEF8
:1003A00000F006F8DDF804E0DDE9022304B0704750
:1003B0002DE9F047089D04468E46002B4DD18A4218
:1003C000944669D9B2FA82F252B101FA02F3C2F14B
:1003D000200120FA01F10CFA02FC41EA030E9440DC
:1003E0004FEA1C48210CBEFBF8F61FFA8CF708FBFD
:1003F00016E341EA034306FB07F199420AD91CEBD5
:10040000030306F1FF3080F01F81994240F21C8106
:10041000023E63445B1AA4B2B3FBF8F008FB10334E
:1004200044EA034400FB07F7A7420AD91CEB040483
:1004300000F1FF3380F00A81A74240F20781644453
:10044000023840EA0640E41B00261DB1D4400023D8
:10045000C5E900433146BDE8F0878B4209D9002D3C
:1004600000F0EF800026C5E9000130463146BDE8C6
:10047000F087B3FA83F6002E4AD18B4202D3824230
:1004800000F2F980841A61EB030301209E46002DDF
:10049000E0D0C5E9004EDDE702B9FFDEB2FA82F234
:1004A000002A40F09280A1EB0C014FEA1C471FFA92
:1004B0008CFE0126200CB1FBF7F307FB131140EA79
:1004C00001410EFB03F0884208D91CEB010103F146
:1004D000FF3802D2884200F2CB804346091AA4B208
:1004E000B1FBF7F007FB101144EA01440EFB00FEDC
:1004F000A64508D91CEB040400F1FF3102D2A64541
:1005000000F2BB800846A4EB0E0440EA03409CE7DF
:10051000C6F12007B34022FA07FC4CEA030C20FA8C
:1005200007F401FA06F31C43F9404FEA1C4900FAAC
:1005300006F3B1FBF9F8200C1FFA8CFE09FB181129
:1005400040EA014108FB0EF0884202FA06F20BD99C
:100550001CEB010108F1FF3A80F08880884240F2EC
:100560008580A8F102086144091AA4B2B1FBF9F030
:1005700009FB101144EA014100FB0EFE8E4508D92B
:100580001CEB010100F1FF346CD28E456AD90238B0
:10059000614440EA0840A0FB0294A1EB0E01A14295
:1005A000C846A64656D353D05DB1B3EB080261EB03
:1005B0000E0101FA07F722FA06F3F1401F43C5E9DD
:1005C000007100263146BDE8F087C2F12003D84013
:1005D0000CFA02FC21FA03F3914001434FEA1C4755
:1005E0001FFA8CFEB3FBF7F007FB10360B0C43EA47
:1005F000064300FB0EF69E4204FA02F408D91CEBF7
:10060000030300F1FF382FD29E422DD902386344F4
:100610009B1B89B2B3FBF7F607FB163341EA034194
:1006200006FB0EF38B4208D91CEB010106F1FF38E3
:1006300016D28B4214D9023E6144C91A46EA0046DA
:1006400038E72E46284605E70646E3E61846F8E66C
:100650004B45A9D2B9EB020864EB0C0E0138A3E7B5
:100660004646EAE7204694E74046D1E7D0467BE796
:10067000023B614432E7304609E76444023842E70E
:10068000704700BF80B584B000AF78607B68DBB294
:10069000FB7307F10F014FF0FF330122034806F00F
:1006A000CBFC7B6818461037BD4680BDAC010024EA
:1006B00080B586B000AF78607B681A68134B134032
:1006C000B3F1105F18D17B6804331B687B617B69D1
:1006D0003B6179690E480BF0FFFE72B600BF0D4A10
:1006E0007B6893607B681B68FB60FB6883F308880A
:1006F00000BF3B69984704E007480BF073FF00F028
:100700003BFA00BF1837BD4680BD00BF0000F72F81
:10071000F8D4000800ED00E010D5000880B500AF67
:1007200000F0FCF901F05AFA00F03EF800F034F95C
:1007300000F0BAF800F0E4F815480BF053FF00F0B1
:1007400057FF0346002B04D012480BF04BFF00F07C
:1007500013FA0221104801F03FFE0346002B0BD193
:1007600001F094F80346002B02D00C480BF03AFF3E
:100770004FF01040FFF79CFF09480BF033FF0BF0E0
:1007800015FA01220121074801F03EFEFEE700BFF5
:1007900038D5000850D500080014025864D5000868
:1007A00078D500080004025880B59CB000AF07F16E
:1007B00024034C22002118460BF086FE3B1D20220C
:1007C000002118460BF080FE022003F0E3F800231E
:1007D0003B60334BDB6A324A23F00103D362304B78
:1007E000DB6A03F001033B602E4B9B6923F440431B
:1007F0002C4A43F4804393612A4B9B6903F44043A2
:100800003B603B6800BF274B9B6903F40053B3F583
:10081000005FF8D103237B624FF48033BB62012376
:100820003B6340237B630223BB640223FB640223FC
:100830003B6510237B650223BB650423FB65022314
:100840003B660C237B660023BB660023FB6607F137
:100850002403184603F08EFD0346002B01D000F060
:100860008BF93F237B600023BB600023FB600023E8
:100870003B6100237B614023BB610023FB610023BC
:100880003B623B1D0121184604F0CEF90346002BC4
:1008900001D000F071F900BF7037BD4680BD00BFC8
:1008A000000400580048025880B500AF124B134AAC
:1008B0001A60114B01225A600F4B04229A600E4BB2
:1008C0000022DA600C4B15221A610B4B00225A6190
:1008D000094B01229A61084B0022DA61064B002283
:1008E0001A62054803F0A0F80346002B01D000F07F
:1008F00043F900BF80BD00BF6001002400500052DA
:1009000080B500AF224B234A1A60214B4FF4E132ED
:100910005A601F4B00229A601D4B0022DA601C4B6C
:1009200000221A611A4B0C225A61194B00229A615B
:10093000174B0022DA61164B00221A62144B002278
:100940005A62134B00229A62114806F025FB0346B7
:10095000002B01D000F010F900210D4807F0B5FB85
:100960000346002B01D000F007F90021084807F0EA
:10097000EAFB0346002B01D000F0FEF8044807F024
:100980006BFB0346002B01D000F0F6F800BF80BDE2
:10099000AC0100240050004080B58EB000AF07F1DC
:1009A000240300221A605A609A60DA601A61574B79
:1009B000D3F8E030554A43F01003C2F8E030534B0F
:1009C000D3F8E03003F010033B623B6A4F4BD3F89F
:1009D000E0304E4A43F00403C2F8E0304B4BD3F80A
:1009E000E03003F00403FB61FB69484BD3F8E030CF
:1009F000464A43F00803C2F8E030444BD3F8E030F5
:100A000003F00803BB61BB69404BD3F8E0303F4AB9
:100A100043F00103C2F8E0303C4BD3F8E03003F080
:100A200001037B617B69394BD3F8E030374A43F0EF
:100A30002003C2F8E030354BD3F8E03003F0200358
:100A40003B613B69314BD3F8E030304A43F040031F
:100A5000C2F8E0302D4BD3F8E03003F04003FB60E8
:100A6000FB682A4BD3F8E030284A43F08003C2F8F1
:100A7000E030264BD3F8E03003F08003BB60BB6866
:100A8000224BD3F8E030214A43F00203C2F8E030B1
:100A90001E4BD3F8E03003F002037B607B6800223A
:100AA00001211B4801F0B0FC00220121194801F08E
:100AB000ABFC02237B620023BB620223FB6207F1D3
:100AC00024031946144801F0D7FA01237B6201235D
:100AD000BB620023FB6200233B6307F1240319463A
:100AE0000B4801F0C9FA01237B620123BB6200239A
:100AF000FB6200233B6307F124031946054801F01C
:100B0000BBFA00BF3837BD4680BD00BF0044025865
:100B100000080258000402580014025880B584B03E
:100B200000AF3B4600221A605A609A60DA6001F01A
:100B300027FA01233B7000237B704FF010437B604A
:100B400015233B7200237B720023BB720323FB72CD
:100B500001233B7300237B730123BB730123FB73CE
:100B60003B46184601F044FA062001F021FA00BF86
:100B70001037BD4680BD000080B500AF012104489C
:100B800001F05BFC4FF47A7001F0BAF8F6E700BFB1
:100B90000004025880B483B000AF0A4BD3F8F4309D
:100BA000084A43F00203C2F8F430064BD3F8F4309D
:100BB00003F002037B607B6800BF0C37BD465DF825
:100BC000047B70470044025880B5BEB000AF786027
:100BD00007F1E40300221A605A609A60DA601A6131
:100BE00007F12003C022002118460BF06DFC7B6842
:100BF0001B68674A934240F0C7804FF000724FF085
:100C00000003C7E908230023FB6607F12003184609
:100C100004F096FB0346002B01D0FFF7ADFF5D4BC0
:100C2000D3F8D4305B4A43F48043C2F8D430594BF4
:100C3000D3F8D43003F48043FB61FB69554BD3F800
:100C4000E030544A43F01003C2F8E030514BD3F87F
:100C5000E03003F01003BB61BB694E4BD3F8E030CA
:100C60004C4A43F04003C2F8E0304A4BD3F8E0303E
:100C700003F040037B617B69464BD3F8E030454A83
:100C800043F02003C2F8E030424BD3F8E03003F0E9
:100C900020033B613B693F4BD3F8E0303D4A43F0D2
:100CA0000203C2F8E0303B4BD3F8E03003F002031C
:100CB000FB60FB680423C7F8E4300223C7F8E83080
:100CC0000023C7F8EC300023C7F8F0300923C7F839
:100CD000F43007F1E40319462F4801F0CDF9402321
:100CE000C7F8E4300223C7F8E8300023C7F8EC3037
:100CF0000023C7F8F0300A23C7F8F43007F1E40303
:100D00001946264801F0B8F94023C7F8E430022319
:100D1000C7F8E8300023C7F8EC300023C7F8F030FC
:100D20000923C7F8F43007F1E40319461C4801F021
:100D3000A3F94FF44073C7F8E4300223C7F8E83052
:100D40000023C7F8EC300023C7F8F0300A23C7F8B7
:100D5000F43007F1E4031946114801F08DF904233A
:100D6000C7F8E4300223C7F8E8300023C7F8EC30B6
:100D70000023C7F8F0300923C7F8F43007F1E40383
:100D80001946084801F078F900BFF837BD4680BD24
:100D90000050005200440258001002580018025837
:100DA000001402580004025880B5BCB000AF78604F
:100DB00007F1DC0300221A605A609A60DA601A6157
:100DC00007F11803C022002118460BF07DFB7B6859
:100DD0001B68394A93426AD14FF002024FF0000378
:100DE000C7E906230023C7F8903007F11803184617
:100DF00004F0A6FA0346002B01D0FFF7BDFE2F4BEF
:100E0000D3F8E8302D4A43F48013C2F8E8302B4B76
:100E1000D3F8E83003F480137B617B69274BD3F868
:100E2000E030264A43F00403C2F8E030234BD3F805
:100E3000E03003F004033B613B69204BD3F8E03022
:100E40001E4A43F00803C2F8E0301C4BD3F8E030F0
:100E500003F00803FB60FB684FF48053C7F8DC30F5
:100E60000223C7F8E0300023C7F8E4300023C7F8B6
:100E7000E8300823C7F8EC3007F1DC0319461048C6
:100E800001F0FAF80423C7F8DC300223C7F8E03099
:100E90000023C7F8E4300023C7F8E8300823C7F878
:100EA000EC3007F1DC031946064801F0E5F800BF15
:100EB000F037BD4680BD00BF0050004000440258DE
:100EC00000080258000C025880B400AFFEE7000092
:100ED00080B500AF0121024801F0AFFAFAE700BF88
:100EE0000008025880B500AF0121024801F0A5FAC0
:100EF000FAE700BF0008025880B400AFFEE780B4F4
:100F000000AFFEE780B400AF00BFBD465DF8047BD4
:100F1000704780B400AF00BFBD465DF8047B7047EA
:100F200080B400AF00BFBD465DF8047B704780B55C
:100F300000AF00F0C5FE00BF80BD000080B500AF6F
:100F4000024801F028FC00BF80BD00BF300800242B
:100F500080B586B000AFF860B9607A6000237B612D
:100F60000AE0AFF300800146BB685A1CBA60CAB2FF
:100F70001A707B6901337B617A697B689A42F0DB86
:100F80007B6818461837BD4680BD80B586B000AF77
:100F9000F860B9607A6000237B6109E0BB685A1C85
:100FA000BA601B781846FFF76DFB7B6901337B61E4
:100FB0007A697B689A42F1DB7B6818461837BD4630
:100FC00080BD80B483B000AF78604FF0FF33184627
:100FD0000C37BD465DF8047B704780B483B000AF2A
:100FE000786039603B684FF400525A60002318461D
:100FF0000C37BD465DF8047B704780B483B000AF0A
:101000007860012318460C37BD465DF8047B7047B5
:1010100080B485B000AFF860B9607A6000231846EC
:101020001437BD465DF8047B7047000080B586B07C
:1010300000AF7860144A154BD31A7B617B693B6122
:10104000134B1B68002B02D1114B124A1A60104B34
:101050001A687B6813443A699A4207D20BF00AFA7D
:1010600003460C221A604FF0FF3309E0084B1B685F
:10107000FB60074B1A687B681344054A1360FB68E2
:1010800018461837BD4680BD000001380004000036
:10109000400200247011002480B400AF374BD3F815
:1010A0008830364A43F47003C2F88830344B1B68EA
:1010B00003F00F03062B07D8314B1B6823F00F03F7
:1010C0002F4A43F0070313602E4B1B682D4A43F051
:1010D000010313602B4B00221A612A4B1A6829491D
:1010E000294B13400B60264B1B6803F00803002BB1
:1010F00007D0234B1B6823F00F03214A43F007035B
:101100001360204B00229A611E4B0022DA611D4BB6
:1011100000221A621B4B1D4A9A621A4B1C4ADA6261
:10112000184B1C4A1A63174B00225A63154B194A75
:101130009A63144B0022DA63124B164A1A64114B5D
:1011400000225A640F4B1B680E4A23F4802313605D
:101150000C4B00221A66104B1A68104B1340B3F167
:10116000005F02D20E4B01221A600E4B43F2D202F4
:101170001A6000BFBD465DF8047B704700ED00E0DB
:1011800000200052004402587FEDF6EA00020202FD
:101190000000FF01800201010010005C0000FFFF61
:1011A000088100510040005280B400AF002318466F
:1011B000BD465DF8047B704780B400AF002318463D
:1011C000BD465DF8047B704780B582B000AF7860A3
:1011D000144B03221A8000220121134801F014F954
:1011E00001220121114801F00FF911480BF0FAF921
:1011F0007B68104A934209D8786800F09BFB03464D
:101200009AB2084B1A80074B00221A800022012153
:10121000064801F0F9F8034B1B8818460837BD460D
:1012200080BD00BF44020024000402580008025898
:10123000B4D500080000409080B584B000AF78605D
:101240000023FB600C4B1B687A68D31AC3F30B03B3
:10125000002B0CD17B681B0BFB60F86800F026FBB1
:10126000054A7B681360F96804480BF035F900BF44
:101270001037BD4680BD00BF48020024CCD5000811
:1012800080B586B000AFF860B9607A60194B032270
:101290001A8019480BF020F9BB6803F1E0437B6129
:1012A0007869FFF7C9FFBB68B3F1104F03D2BB6881
:1012B00003F178437B617A697B681344B3F5800F4F
:1012C00008D87A68F968786900F08AFB03469AB210
:1012D000084B1A807A68796908480BF0FDF80121FB
:1012E000074801F0AAF8034B1B8818461837BD467B
:1012F00080BD00BF44020024D8D50008E4D5000812
:101300000008025880B584B000AFF860B9607A6018
:10131000F968BA687B6812480BF0DEF801220121F7
:10132000104801F071F8FB68B3F1104F0DD3FA6863
:101330007B6813440C4A934207D8FB6803F1E043EF
:101340007A68B968184600F0C7FB002201210548F9
:1013500001F05AF8BB6818461037BD4680BD00BF83
:10136000F8D50008000802580000409080B584B00D
:1013700000AFF8600B467A60FB72FB7A012B0CD150
:101380007B68013314221A707B68023300221A70C2
:101390007B68033300221A700EE07B68013314224D
:1013A0001A707B68023300221A707B6803330022B4
:1013B0001A7000F003FB00BF002318461037BD462B
:1013C00080BD0000B0B590B000AF7860396007F123
:1013D00008033822002118460BF076F80023BB6280
:1013E00000237B630023BB630023FB634FF40053A4
:1013F0007B61144B1B78002B02D04FF4407301E04B
:101400004FF480733B6200237B620023FB62002366
:101410003B630023FB600023FB613B68BB607B6890
:101420001D4607F108040FCC0FC50FCC0FC50FCC1C
:101430000FC594E8030085E8030078684037BD468F
:10144000B0BD00BF4C02002480B485B000AF78600E
:101450000023FB6003E000BFFB680133FB60FA6818
:101460007B689A42F7D300BF00BF1437BD465DF8D2
:10147000047B704780B582B000AF0123FB710DE0A3
:101480003B1D01220121184600F0E0F83B7903F0F2
:101490000103FB714FF47A70FFF7D6FFFB79002B45
:1014A000EED1002318460837BD4680BD80B590B008
:1014B00000AF786007F1080379681846FFF782FFEC
:1014C00007F1080341F288321946064802F020FB72
:1014D0000346002B01D0012300E0002318464037CB
:1014E000BD4680BD6001002480B594B000AF07F117
:1014F000180305211846FFF765FF00233B60012311
:101500007B6000233B610123FB605023BB60002311
:101510007B610F4B1B78002B02D04FF0407301E032
:101520004FF08073FB6301233B643A4607F11801D7
:1015300041F28833074802F078FC0346002B01D0C3
:10154000012300E0002318465037BD4680BD00BF90
:101550004C0200246001002480B582B000AF062058
:10156000FFF7A4FF0346002B0BD001230FE03B1D28
:1015700001220121184600F069F84FF47A70FFF754
:1015800063FF3B7903F00203002BF0D000231846E1
:101590000837BD4680BD000080B582B000AF022292
:1015A000002112480AF090FF00237B606620FFF7BD
:1015B0007DFF0346002B01D0012312E000237B6056
:1015C00003E000BF7B6801337B607B682E2BF8D97A
:1015D0009920FFF76BFF0346002B01D0012300E0A9
:1015E000002318460837BD4680BD00BF4C020024CA
:1015F00080B582B000AF00233B710023FB71FFF781
:10160000CBFF0346002B01D0012319E000F026F99F
:10161000012240210C4800F0F7FEAB20FFF746FF07
:10162000FFF79AFF3B1D01220121184600F05CF8EC
:101630000346FB716420FFF707FF00F0D9F8FB7940
:1016400018460837BD4680BD00180258B0B598B09E
:1016500000AF78600B46FB701346BB701F4B07F161
:1016600044041D460FCD0FC495E8070084E8070029
:10167000FB789B0060333B4453F81C2C07F10C03B0
:1016800011461846FFF79EFE154B1B78002B02D023
:101690004FF0407301E04FF080733B63BB787B6396
:1016A00007F10C0341F2883219460E4802F030FA75
:1016B0000346002B01D001230BE041F28832796808
:1016C000084802F015FB0346002B01D0012300E07F
:1016D000002318466037BD46B0BD00BF18D60008CD
:1016E0004C0200246001002480B596B000AF786001
:1016F0000B46FB701346BB7007F1400300221A60D3
:101700005A609A60DA601A615A6101237B6431235E
:10171000BB641123FB6438233B65FB789B00583383
:101720003B4453F8182C07F1080311461846FFF7FD
:1017300049FE184B1B78002B02D04FF0407301E09C
:101740004FF08073FB62BB783B63FFF793FE034669
:10175000002B01D0012318E007F1080341F2883281
:1017600019460D4802F0D4F90346002B01D001239D
:101770000BE041F288327968074802F027FA034605
:10178000002B01D0012300E0002318465837BD4646
:1017900080BD00BF4C0200246001002480B590B0E1
:1017A00000AF07F10803EB211846FFF70BFE4FF4DB
:1017B00040733B624FF440637B624FF04073FB62C7
:1017C0000223FB6100237B603A4607F108031946B8
:1017D000064802F0A1FB0346002B01D0012300E0E4
:1017E000002318464037BD4680BD00BF600100247D
:1017F00080B582B000AF3B1D032206211846FFF7DB
:1018000025FF3B791B021AB27B791BB213431BB233
:101810009BB218460837BD4680BD000080B582B037
:1018200000AF0023FB71FFF797FE3820FFF73EFE65
:1018300002233B713B1D012202211846FFF754FF92
:101840000346FB71FFF716FE034B01221A70FB796A
:1018500018460837BD4680BD4C02002480B582B0D2
:1018600000AF094B01221A700023FB71FF20FFF724
:101870001DFE0346FB71044B00221A70FB791846CB
:101880000837BD4680BD00BF4C02002480B500AFC4
:10189000FFF7C4FFFFF782FF0346002B01D00223AE
:1018A00002E0FFF721FE0023184680BD80B590B00E
:1018B00000AF78607B68B3F5806F01D9022331E017
:1018C000FFF74AFE0346002B01D001232AE07A20CD
:1018D000FFF7ECFD0346002B01D0012322E007F1C6
:1018E000080320211846FFF76DFD104B1B78002BD5
:1018F00002D04FF4406301E04FF480637B627B6869
:101900001B03FB6007F1080341F2883219460848BF
:1019100002F0FEF80346002B01D0012302E0FFF79E
:10192000A9FD002318464037BD4680BD4C02002467
:101930006001002480B590B000AF78607B68402BD8
:1019400001D9022331E0FFF707FE0346002B01D047
:1019500001232AE07A20FFF7A9FD0346002B01D0DE
:10196000012322E007F10803D8211846FFF72AFDDA
:10197000104B1B78002B02D04FF4406301E04FF472
:1019800080637B627B681B04FB6007F1080341F204
:1019900088321946084802F0BBF80346002B01D0F4
:1019A000012302E0FFF766FD002318464037BD46DD
:1019B00080BD00BF4C0200246001002480B500AF50
:1019C000FFF7CAFDC720FFF771FD0346002B01D0CA
:1019D000012302E0FFF74EFD0023184680BD000002
:1019E00080B596B000AFF860B9607A607B687B65BF
:1019F00000233B657B68B3F5800F01D9022363E0C8
:101A0000334B1B78002B01D0322300E00223FB6410
:101A100007F11403F96C1846FFF7D4FC4FF4005398
:101A20003B622B4B1B78002B02D04FF4406301E04C
:101A30004FF480633B63264B1B78002B02D04FF0A2
:101A4000407301E04FF08073BB6339E03B6DDBB264
:101A5000002B01D1FFF780FD7B6DB3F5807FA8BF20
:101A60004FF480737B60FB68BB617B68FB6307F1AD
:101A7000140341F288321946164802F049F8034629
:101A8000002B01D001231FE0BA683B6D134441F2E3
:101A9000883219460F4802F099F80346002B01D00E
:101AA000012311E03B6D03F580733B65FB6803F593
:101AB0008073FB607B6DA3F580737B65FFF7DAFCB9
:101AC0007B6D002BC2DC002318465837BD4680BD15
:101AD0004C0200246001002480B594B000AFF8608F
:101AE000B9607A60264B1B78002B01D0EB2300E015
:101AF0000323FB6407F11403F96C1846FFF762FC3B
:101B00004FF400533B621E4B1B78002B02D04FF466
:101B1000406301E04FF480633B63194B1B78002B5B
:101B200002D04FF0407301E04FF08073BB637B68DD
:101B3000FB63FB68BB61124B1B78002B01D00223B7
:101B400000E00023BB6207F1140341F2883219461A
:101B50000C4801F0DDFF0346002B01D001230BE010
:101B600041F28832B968074802F0C2F80346002BF8
:101B700001D0012300E0002318465037BD4680BD48
:101B80004C02002460010024DFF834D0FFF784FA0F
:101B90000C480D490D4A002302E0D458C4500433C8
:101BA000C4188C42F9D30A4A0A4C002301E013609E
:101BB0000432A242FBD30AF063FCFEF7AFFD70478C
:101BC00000000138000000244401002464D700080C
:101BD000440100246C110024FEE7000080B582B0AF
:101BE00000AF032000F08CF903F0D4F90246154B46
:101BF0009B691B0A03F00F031349CB5C03F01F031F
:101C000022FA03F37B600F4B9B6903F00F030E4A2C
:101C1000D35C03F01F037A6822FA03F30B4A1360C4
:101C20000B4A7B6813600F2000F014F80346002B6A
:101C300001D0012302E0FEF7ADFF0023184608376C
:101C4000BD4680BD0044025884D60008040000242C
:101C50000000002480B582B000AF7860154B1B787F
:101C6000002B01D1012321E0134B1A68114B1B7883
:101C700019464FF47A73B3FBF1F3B2FBF3F3184652
:101C800000F071F90346002B01D001230EE07B68C0
:101C90000F2B0AD8002279684FF0FF3000F03BF993
:101CA000064A7B681360002300E0012318460837CA
:101CB000BD4680BD2800002400000024240000242C
:101CC00080B400AF064B1B781A46064B1B681344C2
:101CD000044A136000BFBD465DF8047B704700BF37
:101CE000280000245002002480B400AF034B1B687E
:101CF0001846BD465DF8047B704700BF50020024C3
:101D000080B584B000AF7860FFF7EEFFB8607B6805
:101D1000FB60FB68B3F1FF3F05D00A4B1B781A4606
:101D2000FB681344FB6000BFFFF7DEFF0246BB68A1
:101D3000D31AFA689A42F7D800BF00BF1037BD46E1
:101D400080BD00BF2800002480B400AF034B1B6897
:101D50001B0C1846BD465DF8047B70470010005C04
:101D600080B485B000AF78607B6803F00703FB6048
:101D70000B4BDB68BB60BA684FF6FF031340BB60D8
:101D8000FB681A02BB681A43064B1343BB60044A44
:101D9000BB68D36000BF1437BD465DF8047B704755
:101DA00000ED00E00000FA0580B400AF044BDB68F2
:101DB0001B0A03F007031846BD465DF8047B704715
:101DC00000ED00E080B483B000AF0346FB80B7F9BC
:101DD0000630002B0BDBFB8803F01F020749B7F925
:101DE00006305B09012000FA02F241F8232000BF0F
:101DF0000C37BD465DF8047B704700BF00E100E092
:101E000080B483B000AF03463960FB80B7F9063079
:101E1000002B0ADB3B68DAB20C49B7F90630120135
:101E2000D2B20B4483F800230AE03B68DAB20849D7
:101E3000FB8803F00F03043B1201D2B20B441A7665
:101E400000BF0C37BD465DF8047B704700E100E041
:101E500000ED00E080B489B000AFF860B9607A604E
:101E6000FB6803F00703FB61FB69C3F10703042B65
:101E700028BF0423BB61FB690433062B02D9FB692D
:101E8000033B00E000237B614FF0FF32BB6902FAA5
:101E900003F3DA43BB681A407B699A404FF0FF3185
:101EA0007B6901FA03F3D9437B680B40134318465F
:101EB0002437BD465DF8047B7047000080B582B0D2
:101EC00000AF78607B68013BB3F1807F01D30123D1
:101ED0000FE00A4A7B68013B53600F214FF0FF304F
:101EE000FFF78EFF054B00229A60044B07221A6011
:101EF000002318460837BD4680BD00BF10E000E053
:101F000080B582B000AF78607868FFF729FF00BF26
:101F10000837BD4680BD80B586B000AF0346B960C6
:101F20007A60FB81FFF740FF78617A68B968786969
:101F3000FFF790FF0246B7F90E3011461846FFF73B
:101F40005FFF00BF1837BD4680BD80B582B000AFCF
:101F50000346FB80B7F906301846FFF733FF00BF92
:101F60000837BD4680BD80B582B000AF7860786824
:101F7000FFF7A4FF034618460837BD4680BD0000A2
:101F800080B400AFBFF35F8F00BF074B5B6A064AA8
:101F900023F480335362054B00225A6000BFBD46D4
:101FA0005DF8047B704700BF00ED00E090ED00E0BD
:101FB00080B483B000AF78600B4A7B6843F00103C4
:101FC00053600A4B5B6A094A43F480335362BFF3A0
:101FD0004F8F00BFBFF36F8F00BF00BF0C37BD46F0
:101FE0005DF8047B704700BF90ED00E000ED00E07D
:101FF00080B483B000AF78607B685A781D4B9A60DC
:102000007B681B78002B29D01A4A7B685B68D360F9
:102010007B681B7B1A077B68DB7A1B061A437B688D
:102020009B7ADB041A437B685B7B9B041A437B68C7
:102030009B7B5B041A437B68DB7B1B041A437B6836
:102040005B7A1B021A437B681B7A5B0013437A6836
:1020500012781146074A0B43136105E0054B002235
:10206000DA60044B00221A6100BF0C37BD465DF8F0
:10207000047B704790ED00E080B489B000AF7860D9
:1020800039600023FB61894B7B6194E13B681A68EE
:102090000121FB6901FA03F313403B613B69002B0B
:1020A00000F086813B685B6803F00303012B05D0D9
:1020B0003B685B6803F00303022B30D17B689B68AD
:1020C000BB61FB695B00032202FA03F3DB43BA69DD
:1020D0001340BB613B68DA68FB695B0002FA03F3FB
:1020E000BA691343BB617B68BA699A607B685B68B5
:1020F000BB610122FB6902FA03F3DB43BA691340B7
:10210000BB613B685B681B0903F00102FB6902FAD3
:1021100003F3BA691343BB617B68BA695A603B68D1
:102120005B6803F00303032B17D07B68DB68BB619C
:10213000FB695B00032202FA03F3DB43BA69134035
:10214000BB613B689A68FB695B0002FA03F3BA69FA
:102150001343BB617B68BA69DA603B685B6803F074
:102160000303022B23D1FB69DA087B68083253F89A
:102170002230BB61FB6903F007039B000F2202FAC8
:1021800003F3DB43BA691340BB613B681A69FB691F
:1021900003F007039B0002FA03F3BA691343BB6120
:1021A000FB69DA087B680832B96943F822107B685A
:1021B0001B68BB61FB695B00032202FA03F3DB438C
:1021C000BA691340BB613B685B6803F00302FB69BB
:1021D0005B0002FA03F3BA691343BB617B68BA6917
:1021E0001A603B685B6803F44033002B00F0E0802A
:1021F0002F4BD3F8F4302E4A43F00203C2F8F430E8
:102200002B4BD3F8F43003F00203FB60FB68294A40
:10221000FB699B08023352F82330BB61FB6903F072
:1022200003039B000F2202FA03F3DB43BA69134056
:10223000BB617B68204A934252D07B681F4A93421D
:1022400031D07B681E4A93422BD07B681D4A934253
:1022500025D07B681C4A93421FD07B681B4A93425F
:1022600019D07B681A4A934213D07B68194A93426B
:102270000DD07B68184A934207D07B68174A934277
:1022800001D109232DE00A232BE0082329E00723AD
:1022900027E0062325E0052323E0042321E0032390
:1022A0001FE002231DE001231BE000BF8000005857
:1022B000004402580004005800000258000402586C
:1022C00000080258000C025800100258001402586E
:1022D00000180258001C025800200258002402581E
:1022E0000023FA6902F0030292009340BA69134393
:1022F000BB613849FB699B080233BA6941F8232066
:102300004FF0B0431B68BB613B69DB43BA691340C4
:10231000BB613B685B6803F48013002B03D0BA6990
:102320003B691343BB614FF0B042BB6913604FF090
:10233000B0435B68BB613B69DB43BA691340BB6177
:102340003B685B6803F40013002B03D0BA693B6958
:102350001343BB614FF0B042BB6953607B695B685C
:10236000BB613B69DB43BA691340BB613B685B6897
:1023700003F40033002B03D0BA693B691343BB61FC
:102380007B69BA695A607B691B68BB613B69DB4347
:10239000BA691340BB613B685B6803F48033002B70
:1023A00003D0BA693B691343BB617B69BA691A60A0
:1023B000FB690133FB613B681A68FB6922FA03F38E
:1023C000002B7FF463AE00BF00BF2437BD465DF82D
:1023D000047B70470004005880B485B000AF78607B
:1023E0000B467B807B681A697B881340002B02D0E8
:1023F0000123FB7301E00023FB73FB7B18461437BA
:10240000BD465DF8047B704780B483B000AF786050
:102410000B467B8013467B707B78002B03D07A8839
:102420007B689A6103E07B881A047B689A6100BF2D
:102430000C37BD465DF8047B704780B485B000AFB3
:1024400078600B467B807B685B69FB607A88FB6801
:1024500013401A04FB68D9437B880B401A437B68FE
:102460009A6100BF1437BD465DF8047B7047F0B534
:102470008FB00AAF78607B68002B01D1012316E191
:102480007B681B68BB607B6893F8BD34DBB2002BB4
:1024900006D17B68002283F8BC24786809F0C8FC68
:1024A0007B68032283F8BD24BB68DB6B03F4807375
:1024B000002B02D17B680022DA607B681B6818461B
:1024C00005F0EFFF7B681B683B607E686D4606F198
:1024D00010040FCC0FC50FCC0FC594E8030085E89E
:1024E0000300331D0ECB386805F0BAFE0346002BFF
:1024F00005D07B68022283F8BD240123D7E07B68E6
:102500001B680021184605F0DDFF0023FB734AE03D
:10251000FA7B79681346DB0013449B000B443D3380
:1025200001221A70FA7B79681346DB0013449B0082
:102530000B443C33FA7B1A70FA7BFB7B98B27968C8
:102540001346DB0013449B000B44563302461A80AB
:10255000FA7B79681346DB0013449B000B4440333D
:1025600000221A70FA7B79681346DB0013449B0043
:102570000B44443300221A60FA7B79681346DB006F
:1025800013449B000B44483300221A60FA7B79689D
:102590001346DB0013449B000B444C3300221A60AB
:1025A000FB7B0133FB73FA7B7B685B689A42AFD39A
:1025B0000023FB7344E0FA7B79681346DB00134485
:1025C0009B000B4403F27D2300221A70FA7B79688A
:1025D0001346DB0013449B000B4403F51F73FA7B87
:1025E0001A70FA7B79681346DB0013449B000B4496
:1025F00003F5207300221A70FA7B79681346DB001A
:1026000013449B000B4403F5217300221A60FA7BEC
:1026100079681346DB0013449B000B4403F52273D7
:1026200000221A60FA7B79681346DB0013449B0092
:102630000B4403F5237300221A60FB7B0133FB7309
:10264000FA7B7B685B689A42B5D37B681B683B600A
:102650007E686D4606F110040FCC0FC50FCC0FC578
:1026600094E8030085E80300331D0ECB386805F0BD
:1026700075FF0346002B05D07B68022283F8BD243A
:10268000012314E07B68002283F838207B68012254
:1026900083F8BD247B685B6A012B02D1786801F066
:1026A00049F97B681B68184606F0DBFE00231846D4
:1026B0001437BD46F0BD80B584B000AF78607B684C
:1026C0001B68FB607B6893F8BC34012B01D10223AB
:1026D00022E07B68012283F8BC24FB68DB6B03F4F7
:1026E0008073002B09D17B689B6A012B05D1FB68A5
:1026F0009B6B43F48032FB689A637B681B681846C7
:1027000005F0BEFE7B681B68184606F089FE7B68F4
:10271000002283F8BC24002318461037BD4680BD34
:1027200080B584B000AF78607B681B68FB607B6815
:1027300093F8BC34012B01D1022328E07B680122ED
:1027400083F8BC247B681B68184605F0AAFE7B68EA
:102750001B68184606F085FE7B681B68102118462A
:1027600006F05AF8FB68DB6B03F48073002B09D189
:102770007B689B6A012B05D1FB689B6B23F480323D
:10278000FB689A637B68002283F8BC240023184608
:102790001037BD4680BD90B58DB000AF78607B68C6
:1027A0001B683B623B6AFB617B681B68184606F04E
:1027B0000CFF0346002B40F0B7847B681B6818466B
:1027C00006F070FE0346002B00F0AD84FB6903F5B4
:1027D00000639B681B0AC3F30D027B68C3F8FC24EB
:1027E0007B681B68184606F05DFE034603F0020393
:1027F000022B07D17B681B685A697B681B6802F053
:1028000002025A617B681B68184606F04BFE0346BD
:1028100003F01003102B61D17B681B689A697B68F9
:102820001B6822F010029A613B6A1B6ABB61BB699C
:1028300003F00F021346DB0013449B0003F51E73E5
:102840007A68134404337B61BB695B0C03F00F03AC
:10285000022B24D1BA6947F6F0731340002B35D010
:102860007B69D968BB691B099BB2C3F30A039BB29E
:102870001A46386A06F082FC7B69DA68BB691B0974
:10288000C3F30A031A447B69DA607B695A69BB693E
:102890001B09C3F30A031A447B695A6116E0BB693A
:1028A0005B0C03F00F03062B10D17B6803F2C443CB
:1028B00008221946386A06F061FC7B695A69BB69CF
:1028C0001B09C3F30A031A447B695A617B681B68BE
:1028D0009A697B681B6842F010029A617B681B68EA
:1028E000184606F0DFFD034603F40023B3F5002F7E
:1028F00040F0A78000237B627B681B68184606F0C7
:10290000E4FDB86299E0BB6A03F00103002B00F01C
:102910008E807B681B687A6AD2B21146184606F030
:1029200008FE38613B6903F00103002B0CD07B6A81
:102930005A01FB69134403F530631A46012393607F
:10294000796A786800F070FE3B6903F00803002B99
:102950000CD07B6A5A01FB69134403F530631A46B5
:1029600008239360796A786800F046FF3B6903F0BA
:102970001003002B08D07B6A5A01FB69134403F54E
:1029800030631A46102393603B6903F00203002B67
:1029900030D03B6A5B6903F08003802B09D1FB696F
:1029A00003F500635B68FA6902F5006243F4806333
:1029B00053607A6A1346DB0013449B0003F51E73D1
:1029C0007A68134404337B617B69DB78012B08D17F
:1029D0007B690022DA707B6ADBB21946786809F0FD
:1029E0004DFB7B6A5A01FB69134403F530631A46B9
:1029F000022393603B6903F02003002B08D07B6A1D
:102A00005A01FB69134403F530631A46202393608F
:102A10003B6903F40053002B09D07B6A5A01FB6920
:102A2000134403F530631A464FF4005393607B6AF6
:102A300001337B62BB6A5B08BB62BB6A002B7FF41D
:102A400062AF7B681B68184606F02CFD034603F452
:102A50008023B3F5802F40F0DB807B681B6818462D
:102A600006F04DFDB86200237B62CDE0BB6A03F047
:102A70000103002B00F0C2807B681B687A6AD2B227
:102A80001146184606F073FD38613B6903F00103F7
:102A9000002B57D07B6A03F00F03012202FA03F3E5
:102AA000FB60FB6903F500635A6BFB68DB43F96964
:102AB00001F5006113404B637B6A5A01FB691344C3
:102AC00003F510631A46012393607B68DB68012BD2
:102AD00032D179687A6A1346DB0013449B000B44B9
:102AE0004833196878687A6A1346DB0013449B0000
:102AF000034444331B68194478687A6A1346DB0040
:102B000013449B000344483319607B6A002B13D1A4
:102B100079687A6A1346DB0013449B000B444C33FC
:102B20001B68002B08D17B6818687B6803F2C443DC
:102B30001A46012106F07CFD7B6ADBB219467868F3
:102B400009F017FA3B6903F00803002B08D07B6AF1
:102B50005A01FB69134403F510631A460823936076
:102B60003B6903F01003002B08D07B6A5A01FB6914
:102B7000134403F510631A46102393603B6903F076
:102B80004003002B08D07B6A5A01FB69134403F50C
:102B900010631A46402393603B6903F00203002B45
:102BA00023D0796A386A05F037FE7A6A1346DB006B
:102BB00013449B0038337A68134404337B617B6988
:102BC000DB78012B08D17B690022DA707B6ADBB2EB
:102BD0001946786809F064FA7B6A5A01FB69134464
:102BE00003F510631A46022393603B6903F08003E8
:102BF000002B03D0796A786800F088FC7B6A013387
:102C00007B62BB6A5B08BB62BB6A002B7FF42EAFA2
:102C10007B681B68184606F045FC034603F000433A
:102C2000B3F1004F22D1FB6903F500635B68FA69D9
:102C300002F5006223F0010353607B6893F8F434DB
:102C4000012B08D17B68002283F8F42400217868E6
:102C500000F094FE02E0786809F002FA7B681B68D5
:102C60005A697B681B6802F000425A617B681B68E6
:102C7000184606F017FC034603F40063B3F5006F33
:102C800012D1FB6903F500639B6803F00103012B7C
:102C900002D1786809F0BEF97B681B685A697B68C5
:102CA0001B6802F400625A617B681B68184606F0D4
:102CB000F9FB034603F00063B3F1006F21D17B6899
:102CC0001B685A697B681B6802F000625A617B6866
:102CD00093F8F434002B11D17B68012283F8F4249B
:102CE0007B681B685B6D9B0803F00F027B68C3F871
:102CF000F8240121786800F041FE02E0786809F0CC
:102D000089F97B681B68184606F0CCFB034603F480
:102D10008053B3F5805F40F0B780FB6903F5006333
:102D20005B68FA6902F5006223F0010353607B6877
:102D30001B681021184605F06FFD0023FB6246E07A
:102D4000FB6A5A01FB69134403F510631A464FF6F8
:102D50007F339360FB6A5A01FB69134403F51063E8
:102D60001B68FA6A5101FA690A4402F5106223F4F9
:102D700000131360FB6A5A01FB69134403F53063C7
:102D80001A464FF67F339360FB6A5A01FB6913447E
:102D900003F530631B68FA6A5101FA690A4402F5C7
:102DA000306223F400131360FB6A5A01FB69134479
:102DB00003F530631B68FA6A5101FA690A4402F5A7
:102DC000306243F000631360FB6A0133FB627B688F
:102DD0005B68FA6A9A42B3D3FB6903F50063DB6967
:102DE000FA6902F5006243F00113D3617B681B6B43
:102DF000002B16D0FB6903F50063D3F88430FA6921
:102E000002F5006243F00B03C2F88430FB6903F55E
:102E100000635B6CFA6902F5006243F00B035364D4
:102E200015E0FB6903F500635A69FB6903F500636C
:102E3000194642F22B0313434B61FB6903F5006310
:102E40001B69FA6902F5006243F00B031361FB6929
:102E500003F500631B68FA6902F5006223F4FE6360
:102E600013607B6818687B68DB68D9B27B6803F203
:102E7000C4431A4606F0DCFB7B681B685A697B6812
:102E80001B6802F480525A617B681B68184606F082
:102E900009FB034603F40053B3F5005F24D17B68BC
:102EA0001B68184606F0A0FB7B681B68184605F0F7
:102EB00030FD03461A467B681A617B681C6802F085
:102EC000E3F901467B681B69DBB21A46204605F030
:102ED00035FA786809F075F87B681B685A697B6871
:102EE0001B6802F400525A617B681B68184606F0A2
:102EF000D9FA034603F00803082B0AD1786809F0D1
:102F000052F87B681B685A697B681B6802F00802EC
:102F10005A617B681B68184606F0C4FA034603F042
:102F20008003802B22D13B6A9B6923F080023B6A9D
:102F30009A6101237B6214E079687A6A1346DB00A8
:102F400013449B000B4403F27F231B78012B05D114
:102F50007B6ADBB21946786800F0A7FA7B6A013316
:102F60007B627B685B687A6A9A42E5D37B681B6800
:102F7000184606F097FA034603F48013B3F5801F52
:102F80003BD101237B622BE07B6A5A01FB6913442E
:102F900003F510631B68BB6179687A6A1346DB002E
:102FA00013449B000B4440331B78012B15D1BB69A4
:102FB000002B12DA79687A6A1346DB0013449B000F
:102FC0000B443F3301221A707B6ADBB263F07F034C
:102FD000DBB21946786800F068FA7B6A01337B62DD
:102FE0007B685B687A6A9A42CED37B681B685A69B1
:102FF0007B681B6802F480125A617B681B68184664
:1030000006F050FA034603F40013B3F5001F55D140
:1030100001237B6245E07B6A5A01FB69134403F597
:1030200030631B68BB6179687A6A1346DB0013441E
:103030009B000B4403F520731B78012B2ED1BB6939
:10304000002B2BDABB6903F480327B68D3F8FC34A5
:1030500003F001039A4221D179687A6A1346DB00B2
:1030600013449B000B4403F27F2301221A703B6A36
:103070009B6943F080023B6A9A613B6A5B6903F09B
:103080008003002B0AD1FB6903F500635B68FA69D2
:1030900002F5006243F40073536007E07B6A01337A
:1030A0007B627B685B687A6A9A42B4D37B681B68F0
:1030B0005A697B681B6802F400125A617B681B68BE
:1030C000184606F0EFF9034603F08043B3F1804F52
:1030D0000AD1786808F0F6FF7B681B685A697B683C
:1030E0001B6802F080425A617B681B68184606F034
:1030F000D9F9034603F00403042B15D17B681B6840
:103100005B68BB61BB6903F00403002B02D07868E5
:1031100008F0E6FF7B681B6859687B681B68BA6922
:103120000A435A6000E000BF3437BD4690BD80B509
:1031300082B000AF78600B46FB707B6893F8BC34BC
:10314000012B01D1022313E07B68012283F8BC2408
:103150007B68FA7883F838207B681B68FA78114618
:10316000184606F037F97B68002283F8BC24002358
:1031700018460837BD4680BD80B584B000AF786082
:10318000084611461A460346FB700B463B80134621
:10319000BB700023FB7297F90330002B0FDAFB782A
:1031A00003F00F021346DB0013449B0038337A68A8
:1031B00013440433FB60FB6801225A700FE0FB7874
:1031C00003F00F021346DB0013449B0003F51E734C
:1031D0007A6813440433FB60FB6800225A70FB7862
:1031E00003F00F03DAB2FB681A703A88FB689A6042
:1031F000FB68BA781A71FB685B78002B04D0FB6817
:103200001B789AB2FB685A83BB78022B02D1FB6809
:1032100000225A717B6893F8BC34012B01D1022340
:103220000EE07B68012283F8BC247B681B68F96888
:10323000184605F093FB7B68002283F8BC24FB7AD8
:1032400018461037BD4680BD80B586B000AFF86027
:103250007A603B600B46FB72FB7A03F00F02134669
:10326000DB0013449B0003F51E73FA681344043318
:103270007B617B697A68DA607B693A681A617B698D
:1032800000225A617B6900225A70FB7A03F00F0317
:10329000DAB27B691A70FB68DB68012B02D17A68AD
:1032A0007B69DA61FB681868FB68DB68DBB21A4689
:1032B000796905F0DBFB002318461837BD4680BD51
:1032C00080B586B000AFF8607A603B600B46FB7259
:1032D000FB7A03F00F021346DB0013449B003833E4
:1032E000FA68134404337B617B697A68DA607B692E
:1032F0003A681A617B6900225A617B6901225A701F
:10330000FB7A03F00F03DAB27B691A70FB68DB68A3
:10331000012B02D17A687B69DA61FB681868FB6867
:10332000DB68DBB21A46796905F0A0FB002318467A
:103330001837BD4680BD80B584B000AF78600B46BD
:10334000FB70FB7803F00F027B685B689A4201D93F
:10335000012350E097F90330002B0FDAFB7803F0DC
:103360000F021346DB0013449B0038337A68134482
:103370000433FB60FB6801225A700DE0FA781346B3
:10338000DB0013449B0003F51E737A681344043377
:10339000FB60FB6800225A70FB6801229A70FB7880
:1033A00003F00F03DAB2FB681A707B6893F8BC3441
:1033B000012B01D102231EE07B68012283F8BC248B
:1033C0007B681B68F968184605F030FFFB7803F04E
:1033D0000F03002B0AD17B6818687B68DB68D9B2C1
:1033E0007B6803F2C4431A4606F022F97B68002288
:1033F00083F8BC24002318461037BD4680BD80B535
:1034000084B000AF78600B46FB70FB7803F00F02CE
:103410007B685B689A4201D9012342E097F9033047
:10342000002B0FDAFB7803F00F021346DB00134486
:103430009B0038337A6813440433FB60FB68012235
:103440005A700FE0FB7803F00F021346DB001344C1
:103450009B0003F51E737A6813440433FB60FB681A
:1034600000225A70FB6800229A70FB7803F00F0369
:10347000DAB2FB681A707B6893F8BC34012B01D177
:1034800002230EE07B68012283F8BC247B681B6862
:10349000F968184605F038FF7B68002283F8BC24E1
:1034A000002318461037BD4680BD80B584B000AFFC
:1034B00078600B46FB7097F90330002B0CDAFB7831
:1034C00003F00F021346DB0013449B0038337A6885
:1034D00013440433FB600CE0FB7803F00F02134647
:1034E000DB0013449B0003F51E737A681344043316
:1034F000FB607B681B68F968184605F057FD0346BA
:10350000FB72FB7A18461037BD4680BD80B58AB085
:1035100002AF786039607B681B687B617B693B61C7
:103520003A681346DB0013449B0038337A6813442F
:103530000433FB60FB685A69FB681B699A4201D936
:1035400001236CE0FB681A69FB685B69D31AFB61B5
:10355000FB689B68FA699A4202D9FB689B68FB6129
:10356000FB6903339B08BB612BE0FB681A69FB68AE
:103570005B69D31AFB61FB689B68FA699A4202D9BE
:10358000FB689B68FB61FB6903339B08BB61FB68BD
:10359000D9683B68DAB2FB6998B27B68DB68DBB25A
:1035A00000930346786905F0ABFDFB68DA68FB69B8
:1035B0001A44FB68DA60FB685A69FB691A44FB68C5
:1035C0005A613B685A013B69134403F510639B69D8
:1035D0009BB2BA699A4209D8FB685A69FB681B69B1
:1035E0009A4203D2FB681B69002BBED1FB681A69A3
:1035F000FB685B699A4211D83B6803F00F03012214
:1036000002FA03F3BB603B6903F500635A6BBB68C6
:10361000DB43396901F5006113404B630023184611
:103620002037BD4680BD000080B588B000AF78600F
:1036300039607B681B68FB61FB69BB61FB693C33DC
:1036400004331B687B613B685A01BB69134403F573
:1036500030639B683B617B68DB68012B7BD13B69F6
:1036600003F00803002B15D07B69614A934240F2B6
:10367000B9803B6903F40043002B00F0B3803B6842
:103680005A01BB69134403F530631A464FF40043F3
:103690009360A7E03B6903F02003002B09D03B684F
:1036A0005A01BB69134403F530631A462023936023
:1036B00098E03B6903F02803002B40F093807B697E
:1036C0004B4A93420FD93B6903F40043002B0AD0C5
:1036D0003B685A01BB69134403F530631A464FF443
:1036E000004393607EE03A681346DB0013449B007E
:1036F00003F51E737A6813440433FB60FB681A6A8F
:103700003B685901BB690B4403F530631B69C3F384
:103710001203D21AFB685A613B68002B14D1FB6874
:103720001B69002B09D17B6818687B6803F2C443CE
:103730001A46012105F07CFF06E0FB68DA68FB68A9
:103740005B691A44FB68DA603B68DBB2194678684B
:1037500008F0F4FB46E07B69264A934224D13B699A
:1037600003F40043002B0AD03B685A01BB691344A1
:1037700003F530631A464FF40043936032E03B692F
:1037800003F02003002B08D03B685A01BB691344A7
:1037900003F530631A46202393603B68DBB2194679
:1037A000786808F0CBFB1DE03B68002B14D17968EA
:1037B0003A681346DB0013449B000B4403F5237364
:1037C0001B68002B08D17B6818687B6803F2C44330
:1037D0001A46002105F02CFF3B68DBB219467868D9
:1037E00008F0ACFB002318462037BD4680BD00BF63
:1037F0000A30544F0A31544F80B586B000AF78601C
:1038000039607B681B687B617B693B617B693C330A
:1038100004331B68FB603B685A013B69134403F5A2
:1038200030639B68BB60FB68154A93420ED9BB6846
:1038300003F40043002B09D03B685A013B69134451
:1038400003F530631A464FF400439360786808F03C
:1038500063FBFB680A4A93420CD97B68DB68012B47
:1038600008D17B6818687B6803F2C4431A460121BB
:1038700005F0DEFE002318461837BD4680BD00BFA8
:103880000A30544F80B485B000AF78600B46FB70AF
:1038900013463B807B681B685B6ABB60FB78002B30
:1038A00007D13B8819047B681B68BA680A439A628F
:1038B00028E07B681B689B6A1B0CBA681344BB60DA
:1038C0000023FB730DE07B681A68FB7B40339B0091
:1038D00013445B681B0CBA681344BB60FB7B013369
:1038E000FB73FA7BFB78013B9A42ECD33B881804CC
:1038F0007B681968FB78013BBA68024340339B0040
:103900000B445A60002318461437BD465DF8047B0B
:10391000704780B483B000AF78600B467B807B68D3
:103920001B687A885A62002318460C37BD465DF83A
:10393000047B704780B485B000AF78607B681B68FB
:10394000FB607B680122C3F800257B68002283F8B6
:10395000F424FB689B6943F00062FB689A61FB6892
:103960005A6D054B1343FA68536500231846143704
:10397000BD465DF8047B70470300001080B483B03F
:1039800000AF78600B46FB7000BF0C37BD465DF89A
:10399000047B704780B584B000AF7860194BDB685A
:1039A00003F00403042B0AD0164BDB6803F0070373
:1039B0007A689A4201D001231FE000231DE0114BD9
:1039C000DB6823F007020F497B681343CB60FEF7E7
:1039D0008BF9F86009E0FEF787F90246FB68D31A15
:1039E000B3F57A7F01D9012307E0064B5B6803F446
:1039F0000053B3F5005FEED1002318461037BD46E3
:103A000080BD00BF0048025880B400AF054BDB68A2
:103A1000044A43F08073D36000BFBD465DF8047B69
:103A2000704700BF0048025880B586B002AF78608A
:103A3000FEF75AF9F8607B68002B01D101235FE0A3
:103A40007B6893F84130DBB2002B07D17868FDF733
:103A5000BBF841F28831786800F0C0FA7B681B68D7
:103A60001B6823F4F8517B689B68013B1A027B6852
:103A70001B680A431A607B689B6C0093FB680022FA
:103A80002021786800F0B8FA0346FB72FB7A002B1D
:103A900035D17B681B681A681B4B13407A685268E3
:103AA00011067A68D26811437A68D26911437A683C
:103AB000126A11437A6812680B4313607B681B68B3
:103AC0005A68124B13407A68126911047A68526975
:103AD00011437A68926911437A6812680B43536004
:103AE0007B681B681A687B681B6842F001021A60D9
:103AF0007B6800225A647B68012283F84120FB7AAC
:103B000018461037BD4680BD2FFFFF00FEF8E0FFCE
:103B100080B588B002AFF860B9607A60FEF7E4F86B
:103B20003861FB6893F84030DBB2012B01D10223EE
:103B300048E0FB68012283F84020FB6893F841309D
:103B4000DBB2012B37D1FB6800225A64FB680222EA
:103B500083F841207B6800933B6900222021F868AC
:103B600000F04AFA0346FB75FB7D002B25D10022AD
:103B7000B968F86800F077FABB685B6A002B15D16A
:103B80007B6800933B6901220221F86800F034FA57
:103B90000346FB75FB7D002B0FD1FB681B680222DF
:103BA000DA60FB68012283F8412006E0FB6801220D
:103BB00083F8412001E00223FB75FB68002283F8B3
:103BC0004020FB7D18461837BD4680BD80B58AB0C1
:103BD00002AFF860B9607A600023FB77FEF784F8E3
:103BE000B861FB681B6820337B61FB6893F8403049
:103BF000DBB2012B01D1022376E0FB68012283F8BE
:103C00004020FB6893F84130DBB2012B65D1FB68A3
:103C100000225A64BB68002B56D0FB68122283F83E
:103C20004120FB681B681B695A1CFB68DA62FB6851
:103C30001B681B695A1CFB689A62FB68BA685A6267
:103C4000FB681B685A69FB681B6822F040625A6176
:103C50001BE07B680093BB6901220421F86800F037
:103C6000CBF90346FB77FB7F002B13D1FB685B6A24
:103C70001A787B691A70FB685B6A5A1CFB685A6287
:103C8000FB68DB6A5A1EFB68DA62FB68DB6A002BA2
:103C9000DFD100E000BFFB7F002B10D17B680093D9
:103CA000BB6901220221F86800F0A6F90346FB7700
:103CB000FB7F002B03D1FB681B680222DA60FB68E4
:103CC000012283F841200AE0FB685B6C43F00802A4
:103CD000FB685A640123FB7701E00223FB77FB6852
:103CE000002283F84020FB7F18462037BD4680BD68
:103CF00080B58AB002AFF860B9607A600023FB77C4
:103D0000FDF7F2FFB861FB681B689B697B61FB688C
:103D10001B6820333B61FB6893F84030DBB2012B1A
:103D200001D102237DE0FB68012283F84020FB687B
:103D300093F84130DBB2012B6CD1FB6800225A644E
:103D4000BB68002B5DD0FB68222283F84120FB6812
:103D50001B681B695A1CFB689A63FB681B681B691C
:103D60005A1CFB685A63FB68BA681A63FB681B68D5
:103D70005B6923F04062FB681B6842F080625A6115
:103D8000FB681B687A699A611CE07B680093BB69D9
:103D900001220621F86800F02FF90346FB77FB7F2C
:103DA000002B14D1FB681B6B3A691278D2B21A70DF
:103DB000FB681B6B5A1CFB681A63FB689B6B5A1EE3
:103DC000FB689A63FB689B6B002BDED100E000BFB1
:103DD000FB7F002B10D17B680093BB69012202217D
:103DE000F86800F009F90346FB77FB7F002B03D14D
:103DF000FB681B680222DA60FB68012283F841201D
:103E00000AE0FB685B6C43F00802FB685A6401231C
:103E1000FB7701E00223FB77FB68002283F8402058
:103E2000FB7F18462037BD4680BD80B588B002AF05
:103E3000F860B9607A603B60FDF756FF3861FB6857
:103E400093F84030DBB2012B01D1022360E0FB6824
:103E5000012283F84020FB6893F84130DBB2012B4C
:103E60004FD1FB6800225A64FB68422283F841204C
:103E70003B6800933B6900222021F86800F0BCF801
:103E80000346FB75FB7D002B3DD1FB681B687A6800
:103E900012689A62FB681B687A6852685A62FB680B
:103EA0001B687A689268DA62FB681B681B6823F4F7
:103EB00040027B681B691A43FB681B6842F480025E
:103EC0001A607B68DA68BB689A624FF00062B96872
:103ED000F86800F0C8F83B6800933B6901220821AC
:103EE000F86800F089F80346FB75FB7D002B0AD1CA
:103EF000FB681B680822DA60FB68012283F8412016
:103F000001E00223FB75FB68002283F84020FB7D63
:103F100018461837BD4680BD80B588B002AFF8603E
:103F2000B9607A60FDF7E0FE3861FB6893F84030D5
:103F3000DBB2012B01D102234CE0FB68012283F8A4
:103F40004020FB6893F84130DBB2012B3BD1FB688A
:103F500000225A64FB68822283F84120FB689B6C34
:103F600000933B6900222021F86800F045F80346E1
:103F7000FB75FB7D002B28D1FB681B681B6823F0B9
:103F800008017B685A68FB681B680A431A607B68F3
:103F90005B68082B10D1FB681B687A6812681A638B
:103FA000FB681B681022DA60FB681B681A68FB68F4
:103FB0001B6842F480121A604FF04062B968F868DA
:103FC00000F051F801E00223FB75FB68002283F842
:103FD0004020FB7D18461837BD4680BD80B483B0B5
:103FE00000AF786039607B683A689A6400BF0C372C
:103FF000BD465DF8047B704780B584B000AFF860C3
:10400000B9603B601346FB711AE0BB69B3F1FF3F37
:1040100016D0FDF769FE02463B68D31ABA699A4288
:1040200002D3BB69002B0BD1FB68042283F841202B
:10403000FB685B6C43F00102FB685A6401230EE0ED
:10404000FB681B689A68BB681340002B14BF0123F0
:104050000023DBB21A46FB799A42D6D100231846D8
:104060001037BD4680BD80B485B000AFF860B96040
:104070007A60BB685B6A002B09D07B68B3F1406F44
:1040800005D0BB689A6AFB681B68013A1A61BB6875
:104090009B69002B00F0B980BB681B6A002B5FD0C6
:1040A000FB681B68BA689268DA61BB68DB69002B41
:1040B00031D0BB68DA6ABB681B6B1A43BB685B6BA9
:1040C0001A43BB685B6A1A43BB685B699B041A436B
:1040D000BB681B691A43BB681B6A1A43BB68DB6871
:1040E0001A43BB68DB691A43BB689B691A43BB6808
:1040F0001B6842EA0301FB681B687A680A435A613D
:104100007B68B3F1406F00F02E81FB681B68BA68D2
:1041100052689A6127E1BB68DA6ABB681B6B1A4375
:10412000BB685B6B1A43BB685B6A1A43BB685B691D
:104130009B041A43BB681B691A43BB681B6A1A437A
:10414000BB68DB691A43BB689B691A43BB681B6881
:1041500042EA0301FB681B687A680A435A6102E17C
:10416000BB68DB69002B2ED0BB68DA6ABB681B6BAF
:104170001A43BB685B6B1A43BB685B6A1A43BB6834
:104180005B699B041A43BB681B6A1A43BB68DB6804
:104190001A43BB68DB691A43BB689B691A43BB6857
:1041A0001B6842EA0301FB681B687A680A435A618C
:1041B0007B68B3F1406F00F0D680FB681B68BA687B
:1041C00052689A61CFE0BB68DA6ABB681B6B1A431E
:1041D000BB685B6B1A43BB685B6A1A43BB685B696D
:1041E0009B041A43BB681B6A1A43BB68DB691A430A
:1041F000BB689B691A43BB681B6842EA0301FB6802
:104200001B687A680A435A61ADE0BB681B6A002BE1
:1042100058D0FB681B68BA689268DA61BB68DB69D2
:10422000002B2DD0BB68DA6ABB681B6B1A43BB68D6
:104230005B6B1A43BB685B6A1A43BB685B699B0490
:104240001A43BB681B691A43BB681B6A1A43BB68E5
:10425000DB681A43BB68DB691A43BB689B6942EAA7
:104260000301FB681B687A680A435A617B68B3F1F3
:10427000406F78D0FB681B68BA6852689A6172E038
:10428000BB68DA6ABB681B6B1A43BB685B6B1A437B
:10429000BB685B6A1A43BB685B699B041A43BB68D3
:1042A0001B691A43BB681B6A1A43BB68DB691A4364
:1042B000BB689B6942EA0301FB681B687A680A4392
:1042C0005A6150E0BB68DB69002B2AD0BB68DA6A10
:1042D000BB681B6B1A43BB685B6B1A43BB685B6AAA
:1042E0001A43BB685B699B041A43BB681B6A1A4389
:1042F000BB68DB681A43BB68DB691A43BB689B6910
:1043000042EA0301FB681B687A680A435A617B68CA
:10431000B3F1406F27D0FB681B68BA6852689A6196
:1043200021E0BB685B6A002B1DD0BB68DA6ABB6802
:104330001B6B1A43BB685B6B1A43BB685B6A1A430F
:10434000BB685B699B041A43BB681B6A1A43BB6862
:10435000DB691A43BB689B6942EA0301FB681B687F
:104360007A680A435A6100BF1437BD465DF8047B82
:104370007047000080B58CB000AF78607B68002B80
:1043800002D1012300F048BC7B681B6803F00103E5
:10439000002B00F08880994B1B6903F03803FB6207
:1043A000964B9B6ABB62FB6A102B07D0FB6A182BEB
:1043B00011D1BB6A03F00303022B0CD18F4B1B6896
:1043C00003F40033002B6DD07B685B68002B69D150
:1043D000012300F021BC7B685B68B3F5803F06D108
:1043E000864B1B68854A43F4803313602EE07B685C
:1043F0005B68002B0CD1814B1B68804A23F480330F
:1044000013607E4B1B687D4A23F4802313601DE0FC
:104410007B685B68B3F5A02F0CD1784B1B68774A9B
:1044200043F480231360754B1B68744A43F4803354
:1044300013600BE0714B1B68704A23F480331360E8
:104440006E4B1B686D4A23F4802313607B685B68A6
:10445000002B13D0FDF748FC786208E0FDF744FC20
:1044600002467B6AD31A642B01D90323D4E3634B3E
:104470001B6803F40033002BF0D014E0FDF734FC8C
:10448000786208E0FDF730FC02467B6AD31A642BA1
:1044900001D90323C0E3594B1B6803F40033002BFD
:1044A000F0D100E000BF7B681B6803F00203002B23
:1044B00000F0CA80514B1B6903F038033B624F4B3D
:1044C0009B6AFB613B6A002B07D03B6A182B56D1D5
:1044D000FB6903F00303002B51D1484B1B6803F029
:1044E0000403002B05D07B68DB68002B01D101237E
:1044F00092E3424B1B6823F019027B68DB683F495B
:1045000013430B60FDF7F0FB786208E0FDF7ECFB6E
:1045100002467B6AD31A022B01D903237CE3374B73
:104520001B6803F00403002BF0D0FDF70DFC0346DD
:1045300041F20302934217D87B681B69402B08D1D4
:104540002E4B5B6823F47C332C4A43F400335360D6
:104550007AE02A4B5B6823F47C327B681B691B037F
:10456000264913434B606FE0244B5B6823F0FE4207
:104570007B681B691B06214913434B6064E07B6821
:10458000DB68002B47D01D4B1B6823F019027B68AA
:10459000DB681A4913430B60FDF7A6FB786208E05D
:1045A000FDF7A2FB02467B6AD31A022B01D9032333
:1045B00032E3124B1B6803F00403002BF0D0FDF72D
:1045C000C3FB034641F20302934219D87B681B697F
:1045D000402B08D1094B5B6823F47C33074A43F432
:1045E0000033536030E0054B5B6823F47C327B681A
:1045F0001B691B03014913434B6025E0004402582B
:104600009A4B5B6823F0FE427B681B691B06974947
:1046100013434B6018E0954B1B68944A23F0010349
:104620001360FDF761FB786208E0FDF75DFB024671
:104630007B6AD31A022B01D90323EDE28B4B1B6853
:1046400003F00403002BF0D17B681B6803F0100318
:10465000002B00F0A980854B1B6903F03803BB6178
:10466000824B9B6A7B61BB69082B07D0BB69182B07
:104670003AD17B6903F00303012B35D17B4B1B68D7
:1046800003F48073002B05D07B68DB69802B01D09D
:104690000123C1E2FDF758FB034641F203029342B6
:1046A00017D87B681B6A202B08D1704B5B6823F0FE
:1046B000F8436E4A43F08043536075E06B4B5B6890
:1046C00023F0F8427B681B6A9B06684913434B60E2
:1046D0006AE0664BDB6823F07C527B681B6A1B0632
:1046E00062491343CB605FE07B68DB69002B42D0FB
:1046F0005E4B1B685D4A43F080031360FDF7F4FADC
:10470000786208E0FDF7F0FA02467B6AD31A022BC2
:1047100001D9032380E2554B1B6803F48073002BFF
:10472000F0D0FDF711FB034641F20302934217D884
:104730007B681B6A202B08D14C4B5B6823F0F84345
:104740004A4A43F0804353602EE0484B5B6823F0B5
:10475000F8427B681B6A9B06444913434B6023E085
:10476000424BDB6823F07C527B681B6A1B063F4987
:104770001343CB6018E03D4B1B683C4A23F0800399
:104780001360FDF7B1FA786208E0FDF7ADFA024672
:104790007B6AD31A022B01D903233DE2334B1B68FA
:1047A00003F48073002BF0D17B681B6803F00803CF
:1047B000002B36D07B685B69002B19D02B4B5B6FCD
:1047C0002A4A43F001035367FDF78EFA786208E046
:1047D000FDF78AFA02467B6AD31A022B01D903231A
:1047E0001AE2224B5B6F03F00203002BF0D018E0BB
:1047F0001E4B5B6F1D4A23F001035367FDF774FAEC
:10480000786208E0FDF770FA02467B6AD31A022B41
:1048100001D9032300E2154B5B6F03F00203002B69
:10482000F0D17B681B6803F02003002B39D07B6834
:104830009B69002B1CD00D4B1B680C4A43F4805322
:104840001360FDF751FA786208E0FDF74DFA024671
:104850007B6AD31A022B01D90323DDE1034B1B68CA
:1048600003F40053002BF0D01BE000BF00440258BB
:104870009B4B1B689A4A23F480531360FDF734FA6C
:10488000786208E0FDF730FA02467B6AD31A022B01
:1048900001D90323C0E1924B1B6803F40053002BA2
:1048A000F0D17B681B6803F00403002B00F08180CB
:1048B0008C4B1B688B4A43F480731360FDF714FA2A
:1048C000786208E0FDF710FA02467B6AD31A642B7F
:1048D00001D90323A0E1834B1B6803F48073002BF1
:1048E000F0D07B689B68012B06D17D4B1B6F7C4A07
:1048F00043F0010313672DE07B689B68002B0CD10C
:10490000774B1B6F764A23F001031367744B1B6FC1
:10491000734A23F0040313671CE07B689B68052B34
:104920000CD16F4B1B6F6E4A43F0040313676C4B43
:104930001B6F6B4A43F0010313670BE0684B1B6F5F
:10494000674A23F001031367654B1B6F644A23F02A
:10495000040313677B689B68002B15D0FDF7C4F92F
:1049600078620AE0FDF7C0F902467B6AD31A41F289
:104970008832934201D903234EE1594B1B6F03F058
:104980000203002BEED014E0FDF7AEF978620AE0E6
:10499000FDF7AAF902467B6AD31A41F288329342A4
:1049A00001D9032338E14E4B1B6F03F00203002BA8
:1049B000EED17B685B6A002B00F02D81484B1B69B0
:1049C00003F03803182B00F0BD807B685B6A022B74
:1049D00040F09E80424B1B68414A23F08073136075
:1049E000FDF782F9786208E0FDF77EF902467B6AFE
:1049F000D31A022B01D903230EE1394B1B6803F0B4
:104A00000073002BF0D1364B9A6A374B13407A680B
:104A1000916A7A68D26A12010A43314913438B6260
:104A20007B681B6B013BC3F308027B685B6B013B3C
:104A30005B029BB21A437B689B6B013B1B0403F434
:104A4000FE031A437B68DB6B013B1B0603F0FE434E
:104A5000234913430B63224BDB6A214A23F00103F2
:104A6000D3621F4B5A6B214B13407A68926CD20071
:104A70001B4913434B631A4BDB6A23F00C027B6820
:104A80001B6C17491343CB62154BDB6A23F0020200
:104A90007B685B6C12491343CB62114BDB6A104A93
:104AA00043F48033D3620E4BDB6A0D4A43F4003388
:104AB000D3620B4BDB6A0A4A43F48023D362084B70
:104AC000DB6A074A43F00103D362054B1B68044AC3
:104AD00043F080731360FDF707F9786211E000BFBF
:104AE00000440258004802580CFCFFFF0700FFFF7B
:104AF000FDF7FAF802467B6AD31A022B01D9032389
:104B00008AE0474B1B6803F00073002BF0D082E073
:104B1000434B1B68424A23F080731360FDF7E4F8AF
:104B2000786208E0FDF7E0F802467B6AD31A022BB0
:104B300001D9032370E03A4B1B6803F00073002B8C
:104B4000F0D168E0364B9B6A3B61354B1B6BFB60D9
:104B50007B685B6A012B31D03B6903F003027B6801
:104B60009B6A9A422AD13B691B0903F03F027B688A
:104B7000DB6A9A4222D1FB68C3F308027B681B6B95
:104B8000013B9A421AD1FB685B0A03F07F027B6803
:104B90005B6B013B9A4211D1FB681B0C03F07F0257
:104BA0007B689B6B013B9A4208D1FB681B0E03F0AC
:104BB0007F027B68DB6B013B9A4201D001232BE033
:104BC000174B5B6BDB08C3F30C033B617B689B6C8F
:104BD0003A699A421FD0124BDB6A114A23F0010353
:104BE000D362FDF781F8786200BFFDF77DF80246D9
:104BF0007B6A9342F9D00A4B5A6B0A4B13407A688E
:104C0000926CD200064913434B63054BDB6A044A9E
:104C100043F00103D362002318463037BD4680BD00
:104C2000004402580700FFFF80B586B000AF7860EF
:104C300039607B68002B01D101239CE18A4B1B6802
:104C400003F00F033A689A4210D9874B1B6823F090
:104C50000F0285493B6813430B60834B1B6803F0CD
:104C60000F033A689A4201D0012384E17B681B68F4
:104C700003F00403002B10D07B681A697B4B9B69FF
:104C800003F070039A4208D9784B9B6923F07002B5
:104C90007B681B69754913438B617B681B6803F054
:104CA0000803002B10D07B685A69704BDB6903F056
:104CB00070039A4208D96D4BDB6923F070027B6860
:104CC0005B696A491343CB617B681B6803F010037F
:104CD000002B10D07B689A69644BDB6903F4E063B6
:104CE0009A4208D9614BDB6923F4E0627B689B69D7
:104CF0005E491343CB617B681B6803F02003002BE4
:104D000010D07B68DA69594B1B6A03F070039A4232
:104D100008D9564B1B6A23F070027B68DB69534944
:104D200013430B627B681B6803F00203002B10D057
:104D30007B68DA684D4B9B6903F00F039A4208D9F0
:104D40004A4B9B6923F00F027B68DB68474913439A
:104D50008B617B681B6803F00103002B55D0434B2C
:104D60009B6923F470627B689B68404913438B61A5
:104D70007B685B68022B07D13C4B1B6803F4003354
:104D8000002B21D10123F6E07B685B68032B07D160
:104D9000364B1B6803F00073002B15D10123EAE0AA
:104DA0007B685B68012B07D1304B1B6803F4807371
:104DB000002B09D10123DEE02C4B1B6803F0040318
:104DC000002B01D10123D6E0284B1B6923F00702F9
:104DD0007B685B68254913430B61FCF785FF7861AD
:104DE0000AE0FCF781FF02467B69D31A41F2883260
:104DF000934201D90323BEE01C4B1B6903F0380228
:104E00007B685B68DB009A42EBD17B681B6803F030
:104E10000203002B10D07B68DA68144B9B6903F007
:104E20000F039A4208D2114B9B6923F00F027B6853
:104E3000DB680E4913438B610B4B1B6803F00F03B8
:104E40003A689A4214D2084B1B6823F00F020649B5
:104E50003B6813430B60044B1B6803F00F033A6875
:104E60009A4205D0012386E00020005200440258F7
:104E70007B681B6803F00403002B10D07B681A6961
:104E80003F4B9B6903F070039A4208D23C4B9B69ED
:104E900023F070027B681B69394913438B617B687F
:104EA0001B6803F00803002B10D07B685A69344B51
:104EB000DB6903F070039A4208D2314BDB6923F0BF
:104EC00070027B685B692E491343CB617B681B686A
:104ED00003F01003002B10D07B689A69284BDB6924
:104EE00003F4E0639A4208D2254BDB6923F4E062C5
:104EF0007B689B6922491343CB617B681B6803F085
:104F00002003002B10D07B68DA691D4B1B6A03F06D
:104F100070039A4208D21A4B1B6A23F070027B6816
:104F2000DB69174913430B6200F034F80246144B57
:104F30009B691B0A03F00F031249CB5C03F01F03AC
:104F400022FA03F33B610E4B9B6903F00F030D4AFA
:104F5000D35C03F01F033A6922FA03F30A4A136091
:104F60000A4A3B6913600A4B1B681846FCF772FE3D
:104F70000346FB73FB7B18461837BD4680BD00BF58
:104F80000044025884D600080400002400000024D5
:104F90002400002480B489B000AFB34B1B6903F038
:104FA0003803182B00F2558101A252F823F000BFFC
:104FB000155000085352000853520008535200087D
:104FC000535200085352000853520008535200082D
:104FD0003B50000853520008535200085352000837
:104FE000535200085352000853520008535200080D
:104FF0004150000853520008535200085352000811
:1050000053520008535200085352000853520008EC
:1050100047500008944B1B6803F02003002B09D075
:10502000914B1B68DB0803F00303904A22FA03F359
:10503000BB6111E18D4BBB610EE18D4BBB610BE19F
:105040008C4BBB6108E1884B9B6A03F003037B61D7
:10505000854B9B6A1B0903F03F033B61824BDB6A74
:1050600003F00103FB60804B5B6BDB08C3F30C03B5
:10507000FA6802FB03F307EE903AF8EE677AC7EDA1
:10508000027A3B69002B00F0E1807B69022B00F083
:1050900083807B69022B00F2A1807B69002B03D007
:1050A0007B69012B56D099E06F4B1B6803F02003FE
:1050B000002B2DD06C4B1B68DB0803F003036B4AFD
:1050C00022FA03F37B607B6807EE903AF8EE676A9A
:1050D0003B6907EE903AF8EE677A86EEA77A624B64
:1050E0001B6BC3F3080307EE903AF8EE676A97ED7F
:1050F000026ADFED615AC6EE257A76EEA77AF7EE00
:10510000006A77EEA67A67EE277AC7ED077A87E01E
:105110003B6907EE903AF8EE677ADFED586A86EE63
:10512000A77A514B1B6BC3F3080307EE903AF8EED6
:10513000676A97ED026ADFED505AC6EE257A76EE81
:10514000A77AF7EE006A77EEA67A67EE277AC7EDC0
:10515000077A65E03B6907EE903AF8EE677ADFED93
:10516000486A86EEA77A404B1B6BC3F3080307EE31
:10517000903AF8EE676A97ED026ADFED3F5AC6EEA5
:10518000257A76EEA77AF7EE006A77EEA67A67EED2
:10519000277AC7ED077A43E03B6907EE903AF8EECD
:1051A000677ADFED386A86EEA77A2F4B1B6BC3F365
:1051B000080307EE903AF8EE676A97ED026ADFEDB2
:1051C0002E5AC6EE257A76EEA77AF7EE006A77EECB
:1051D000A67A67EE277AC7ED077A21E03B6907EEEA
:1051E000903AF8EE677ADFED266A86EEA77A1E4BD4
:1051F0001B6BC3F3080307EE903AF8EE676A97ED6E
:10520000026ADFED1D5AC6EE257A76EEA77AF7EE32
:10521000006A77EEA67A67EE277AC7ED077A00BFB5
:10522000114B1B6B5B0A03F07F0301333B603B6850
:1052300007EE903AB8EE677AD7ED076AC6EE877A3E
:10524000FCEEE77A17EE903ABB6105E00023BB6104
:1052500002E0074BBB6100BFBB6918462437BD465F
:105260005DF8047B704700BF004402580090D003F3
:1052700000093D0000366E01000000460024744C19
:105280000024744A001BB74B80B582B000AFFFF713
:1052900081FE0246104B9B691B0A03F00F030F4966
:1052A000CB5C03F01F0322FA03F37B600A4B9B697C
:1052B00003F00F03094AD35C03F01F037A6822FA54
:1052C00003F3074A1360074A7B681360044B1B68AB
:1052D00018460837BD4680BD0044025884D60008F1
:1052E000040000240000002480B500AFFFF7CCFFCD
:1052F0000246064BDB691B0903F007030449CB5C3C
:1053000003F01F0322FA03F3184680BD004402583D
:1053100084D6000880B500AFFFF7B6FF0246064B03
:10532000DB691B0A03F007030449CB5C03F01F038E
:1053300022FA03F3184680BD0044025884D60008C0
:105340002DE9B04FCAB000AFC7F81401002387F8A9
:105350002731002387F82631D7F81431D3E9002309
:1053600002F00064002554EA050349D0D7F814314F
:105370009B6EB3F5401F2FD0B3F5401F28D8B3F56F
:10538000001F1AD0B3F5001F22D8002B03D0B3F5AD
:10539000801F07D01CE0B84BDB6AB74A43F40033E8
:1053A000D3621AE0D7F8143108330221184601F00D
:1053B0008FFC034687F827310FE0D7F814312833E4
:1053C0000221184601F036FD034687F8273104E034
:1053D000012387F8273100E000BF97F82731002B21
:1053E0000AD1A54B1B6D23F44011D7F814319B6EE5
:1053F000A14A0B43136503E097F8273187F826315C
:10540000D7F81431D3E9002302F480784FF0000973
:1054100058EA090347D0D7F814319B6D042B2AD8DA
:1054200001A252F823F000BF3D5400084B5400087D
:10543000615400087F5400087F5400088E4BDB6ADB
:105440008D4A43F40033D3621AE0D7F8143108339D
:105450000021184601F03CFC034687F827310FE095
:10546000D7F8143128330021184601F0E3FC034635
:1054700087F8273104E0012387F8273100E000BFD7
:1054800097F82731002B0AD17B4B1B6D23F00701C6
:10549000D7F814319B6D784A0B43136503E097F8F6
:1054A000273187F82631D7F81431D3E9002302F4E5
:1054B000007A4FF0000B5AEA0B034CD0D7F81431A6
:1054C000DB6DB3F5807F30D0B3F5807F29D8C02B5A
:1054D0002DD0C02B25D8802B18D0802B21D8002B85
:1054E00002D0402B07D01CE0634BDB6A624A43F4D6
:1054F0000033D3621CE0D7F814310833002118467A
:1055000001F0E6FB034687F8273111E0D7F81431A4
:1055100028330021184601F08DFC034687F8273117
:1055200006E0012387F8273102E000BF00E000BF5A
:1055300097F82731002B0AD14F4B1B6D23F4E071F4
:10554000D7F81431DB6D4C4A0B43136503E097F831
:10555000273187F82631D7F81431D3E9002302F434
:105560008063C7F808310023C7F80C31D7E942122D
:105570000B46134353D0D7F81431D3F8A830B3F502
:10558000000F35D0B3F5000F2ED8B3F5C00F31D0D2
:10559000B3F5C00F28D8B3F5800F1AD0B3F5800F3C
:1055A00022D8002B03D0B3F5001F07D01CE0324BEC
:1055B000DB6A314A43F40033D3621CE0D7F814317C
:1055C00008330021184601F083FB034687F8273192
:1055D00011E0D7F8143128330021184601F02AFCD5
:1055E000034687F8273106E0012387F8273102E0D8
:1055F00000BF00E000BF97F82731002B0BD11E4BF6
:105600009B6D23F46001D7F81431D3F8A8301A4AFF
:105610000B43936503E097F8273187F82631D7F8D5
:105620001431D3E9002302F40063C7F800310023EA
:10563000C7F80431D7E940120B46134356D0D7F8C8
:105640001431D3F8AC30B3F1806F38D0B3F1806F40
:1056500031D8B3F1407F34D0B3F1407F2BD8B3F1D0
:10566000007F1DD0B3F1007F25D8002B06D0B3F109
:10567000807F0AD01FE000BF00440258A24BDB6AC3
:10568000A14A43F40033D3621CE0D7F81431083345
:105690000021184601F01CFB034687F8273111E072
:1056A000D7F8143128330021184601F0C3FB034614
:1056B00087F8273106E0012387F8273102E000BF91
:1056C00000E000BF97F82731002B0BD18E4B9B6D6C
:1056D00023F0E061D7F81431D3F8AC308A4A0B4399
:1056E000936503E097F8273187F82631D7F814310E
:1056F000D3E9002302F00073C7F8F8300023C7F89D
:10570000FC30D7E93E120B4613433AD0D7F8143198
:10571000DB6C302B1FD0302B19D8202B0CD0202B3A
:1057200015D8002B19D0102B11D1774BDB6A764A94
:1057300043F40033D36211E0D7F814310833022167
:10574000184601F0C5FA034687F8273106E0012321
:1057500087F8273102E000BF00E000BF97F827314B
:10576000002B0AD1684BDB6C23F03001D7F81431E1
:10577000DB6C654A0B43D36403E097F8273187F865
:105780002631D7F81431D3E9002302F48053C7F847
:10579000F0300023C7F8F430D7E93C120B4613432E
:1057A00051D0D7F814311B6EB3F5804F35D0B3F517
:1057B000804F2ED8B3F5405F31D0B3F5405F28D885
:1057C000B3F5005F1AD0B3F5005F22D8002B03D0E9
:1057D000B3F5805F07D01CE04B4BDB6A4A4A43F4C9
:1057E0000033D3621CE0D7F8143108330021184687
:1057F00001F06EFA034687F8273111E0D7F814312B
:1058000028330021184601F015FB034687F827319D
:1058100006E0012387F8273102E000BF00E000BF67
:1058200097F82731002B0AD1374B1B6D23F4E04149
:10583000D7F814311B6E344A0B43136503E097F815
:10584000273187F82631D7F81431D3E9002302F441
:105850000053C7F8E8300023C7F8EC30D7E93A1214
:105860000B46134356D0D7F814315B6EB3F5A02F17
:1058700033D0B3F5A02F2CD8B3F5802F2FD0B3F5AC
:10588000802F26D8B3F5403F2BD0B3F5403F20D82A
:10589000B3F5003F12D0B3F5003F1AD8002B22D049
:1058A000B3F5803F15D1D7F81431083301211846DC
:1058B00001F00EFA034687F8273115E0D7F81431C6
:1058C00028330121184601F0B5FA034687F827313D
:1058D0000AE0012387F8273106E000BF04E000BF9B
:1058E00002E000BF00E000BF97F82731002B0DD188
:1058F000054B1B6D23F4E021D7F814315B6E024A8F
:105900000B43136506E000BF0044025897F82731A7
:1059100087F82631D7F81431D3E9002302F4804305
:10592000C7F8E0300023C7F8E430D7E938120B4657
:10593000134355D0D7F81431D3F8B030B3F1A04F9A
:1059400033D0B3F1A04F2CD8B3F1804F2FD0B3F1A7
:10595000804F26D8B3F1405F2BD0B3F1405F20D801
:10596000B3F1005F12D0B3F1005F1AD8002B22D040
:10597000B3F1805F15D1D7F81431083301211846EF
:1059800001F0A6F9034687F8273115E0D7F814315E
:1059900028330121184601F04DFA034687F82731D4
:1059A0000AE0012387F8273106E000BF04E000BFCA
:1059B00002E000BF00E000BF97F82731002B0BD1B9
:1059C000A34B9B6D23F0E041D7F81431D3F8B030EE
:1059D0009F4A0B43936503E097F8273187F82631F8
:1059E000D7F81431D3E9002302F40043C7F8D830C4
:1059F0000023C7F8DC30D7E936120B46134337D003
:105A0000D7F814311B6FB3F1005F0ED0B3F1005F14
:105A100016D8002B18D0B3F1805F11D18C4BDB6A04
:105A20008B4A43F40033D3620FE0D7F814310833C4
:105A30000121184601F04CF9034687F8273104E0AC
:105A4000012387F8273100E000BF97F82731002BAA
:105A50000AD17F4B1B6D23F04051D7F814311B6FD7
:105A60007B4A0B43136503E097F8273187F826310B
:105A7000D7F81431D3E9002302F08073C7F8D0308F
:105A80000023C7F8D430D7E934120B46134339D07A
:105A9000D7F814319B6C032B1CD801A252F823F0C9
:105AA000DD5A0008B15A0008BF5A0008DD5A000844
:105AB000674BDB6A664A43F40033D3620FE0D7F8E2
:105AC000143108330221184601F002F9034687F821
:105AD000273104E0012387F8273100E000BF97F861
